{
  "transactions": [
    {
      "hash": "0x5145d0bab7f46ffc41faf4b69098e6710b18cc26c5af2e7047e17c20ad362928",
      "transactionType": "CALL",
      "contractName": null,
      "contractAddress": "0x1ee370274e3d6ba4909efe4b2f04e6f138899cdd",
      "function": "setZUSDAddress(address)",
      "arguments": [
        "0x8BAf86620AF5164Be426315Ddf09e2e6Aa183E96"
      ],
      "transaction": {
        "from": "0xa6c8247b39753a1436e512c358b0f27f15dfa452",
        "to": "0x1ee370274e3d6ba4909efe4b2f04e6f138899cdd",
        "gas": "0xc91b",
        "value": "0x0",
        "input": "0x8c75d8ec0000000000000000000000008baf86620af5164be426315ddf09e2e6aa183e96",
        "nonce": "0x424",
        "chainId": "0x14a34"
      },
      "additionalContracts": [],
      "isFixedGasLimit": false
    }
  ],
  "receipts": [
    {
      "status": "0x1",
      "cumulativeGasUsed": "0x2ae791",
      "logs": [
        {
          "address": "0x1ee370274e3d6ba4909efe4b2f04e6f138899cdd",
          "topics": [
            "0xb34461dff3370e23816e7f8cc85c0436b2430b0d8a04ce44dad81ac5d1434efd",
            "0x0000000000000000000000008baf86620af5164be426315ddf09e2e6aa183e96"
          ],
          "data": "0x",
          "blockHash": "0x5bb9f8781fe8b183a84da178db859d209980ef11f91063f83ee75a7bf98ead81",
          "blockNumber": "0xe14fec",
          "transactionHash": "0x5145d0bab7f46ffc41faf4b69098e6710b18cc26c5af2e7047e17c20ad362928",
          "transactionIndex": "0xb",
          "logIndex": "0x37",
          "removed": false
        }
      ],
      "logsBloom": "0x00000000000000000000000000000000000000000000000000000000000000000000000000000000000000000000000000000000000000000000000000000000000004000000000200000000000000000200000000000000008000000000000000000000000000000000000000000000000000000000000000000000000000000000000000000000000004000000000000000000000000000020000000000000000000000000000000000000000000000000000000000000000000000000000000000000000000000000000000000080000000000000000000000000000000000000000000000000000000000000000000000040000000000000000000000800",
      "type": "0x2",
      "transactionHash": "0x5145d0bab7f46ffc41faf4b69098e6710b18cc26c5af2e7047e17c20ad362928",
      "transactionIndex": "0xb",
      "blockHash": "0x5bb9f8781fe8b183a84da178db859d209980ef11f91063f83ee75a7bf98ead81",
      "blockNumber": "0xe14fec",
      "gasUsed": "0x8983",
      "effectiveGasPrice": "0xf436e",
      "from": "0xa6c8247b39753a1436e512c358b0f27f15dfa452",
      "to": "0x1ee370274e3d6ba4909efe4b2f04e6f138899cdd",
      "contractAddress": null,
      "l1BaseFeeScalar": "0x44d",
      "l1BlobBaseFee": "0x30d7bb9b75",
      "l1BlobBaseFeeScalar": "0xa118b",
      "l1Fee": "0xc99af72c587",
      "l1GasPrice": "0x19619b34c",
      "l1GasUsed": "0x640"
    }
  ],
  "libraries": [],
  "pending": [],
  "returns": {},
  "timestamp": 1725300413,
  "chain": 84532,
  "commit": "b28ca51"
}