{
  "transactions": [
    {
      "hash": "0x6b1954717262837e231ce7fbd8deb55cfa145221345a39713e7e0f22befa68c5",
      "transactionType": "CALL",
      "contractName": null,
      "contractAddress": "0xca6181a5e831ef67e04e276e4909946c43353f8d",
      "function": "upgradeTo(address)",
      "arguments": [
        "0x38b1B94C5ac1A33D03b0035eD430827c5bc7aCF3"
      ],
      "transaction": {
        "from": "0xa6c8247b39753a1436e512c358b0f27f15dfa452",
        "to": "0xca6181a5e831ef67e04e276e4909946c43353f8d",
        "gas": "0xbafb",
        "value": "0x0",
        "input": "0x3659cfe600000000000000000000000038b1b94c5ac1a33d03b0035ed430827c5bc7acf3",
        "nonce": "0x422",
        "chainId": "0x14a34"
      },
      "additionalContracts": [],
      "isFixedGasLimit": false
    },
    {
      "hash": "0x36dea24311abee887414d13d4757becc07d9ce035517d902035326408548e501",
      "transactionType": "CALL",
      "contractName": null,
      "contractAddress": "0x1ee370274e3d6ba4909efe4b2f04e6f138899cdd",
      "function": "setBeacon(address)",
      "arguments": [
        "0xca6181a5e831eF67e04E276E4909946c43353f8d"
      ],
      "transaction": {
        "from": "0xa6c8247b39753a1436e512c358b0f27f15dfa452",
        "to": "0x1ee370274e3d6ba4909efe4b2f04e6f138899cdd",
        "gas": "0xc8ea",
        "value": "0x0",
        "input": "0xd42afb56000000000000000000000000ca6181a5e831ef67e04e276e4909946c43353f8d",
        "nonce": "0x423",
        "chainId": "0x14a34"
      },
      "additionalContracts": [],
      "isFixedGasLimit": false
    }
  ],
  "receipts": [
    {
      "status": "0x1",
      "cumulativeGasUsed": "0x13eb49",
      "logs": [
        {
          "address": "0xca6181a5e831ef67e04e276e4909946c43353f8d",
          "topics": [
            "0xbc7cd75a20ee27fd9adebab32041f755214dbc6bffa90cc0225b39da2e5c2d3b",
            "0x00000000000000000000000038b1b94c5ac1a33d03b0035ed430827c5bc7acf3"
          ],
          "data": "0x",
          "blockHash": "0x75df787c90f7f396a98f6d0f6291671fe53c0339d0530d7c57190f8a28a3f359",
          "blockNumber": "0xe14915",
          "transactionHash": "0x6b1954717262837e231ce7fbd8deb55cfa145221345a39713e7e0f22befa68c5",
          "transactionIndex": "0xc",
          "logIndex": "0x13",
          "removed": false
        }
      ],
      "logsBloom": "0x00000000000000000000000000000000400000000000001000000000000000000000000000000000000000000000000000000040000000000000000000000000000000000000000000000000000002000000000000000000000000000000000000000000000000000000000200000000000000000000000000000000000000000000000000000000000000000000000000000000000000000000000000000000000000000000000000000000000000000000000000000000000000000002000000000020000000000000000000000000000000000000000000200000100000000000000000000000000000000000000000000000000000000000000000000000",
      "type": "0x2",
      "transactionHash": "0x6b1954717262837e231ce7fbd8deb55cfa145221345a39713e7e0f22befa68c5",
      "transactionIndex": "0xc",
      "blockHash": "0x75df787c90f7f396a98f6d0f6291671fe53c0339d0530d7c57190f8a28a3f359",
      "blockNumber": "0xe14915",
      "gasUsed": "0x7fda",
      "effectiveGasPrice": "0x513",
      "from": "0xa6c8247b39753a1436e512c358b0f27f15dfa452",
      "to": "0xca6181a5e831ef67e04e276e4909946c43353f8d",
      "contractAddress": null,
      "l1BaseFeeScalar": "0x44d",
      "l1BlobBaseFee": "0x34d520ab4b",
      "l1BlobBaseFeeScalar": "0xa118b",
      "l1Fee": "0xd9f77da1d75",
      "l1GasPrice": "0xbe245134",
      "l1GasUsed": "0x640"
    },
    {
      "status": "0x1",
      "cumulativeGasUsed": "0x10aa74",
      "logs": [
        {
          "address": "0x1ee370274e3d6ba4909efe4b2f04e6f138899cdd",
          "topics": [
            "0xb6c98a2d14fe1d3cc6112a6fab11204e6e526a4e568d000a85f55dac167b9483",
            "0x000000000000000000000000ca6181a5e831ef67e04e276e4909946c43353f8d"
          ],
          "data": "0x",
          "blockHash": "0x78212b52fb23d8c894412655c361268e093c3a75441a7c46269728a9643207d9",
          "blockNumber": "0xe14919",
          "transactionHash": "0x36dea24311abee887414d13d4757becc07d9ce035517d902035326408548e501",
          "transactionIndex": "0xc",
          "logIndex": "0x9",
          "removed": false
        }
      ],
      "logsBloom": "0x00000000000000000000000000000000000000000000000000000000000000000000000000000000000000000000000000000000000000000000000200000000000004000000000200000000000000000000000000010000000000000000000000000000000000000000000000000000000000000000000000000000000000000000000000000000000000010000000000000000080000000000000000000000000000000000000000000000000000000000000000000000000000000000000800000000000000000000000000000000000000000000000002000000000000000000000000000000000000000000000000000040000000000000000000000000",
      "type": "0x2",
      "transactionHash": "0x36dea24311abee887414d13d4757becc07d9ce035517d902035326408548e501",
      "transactionIndex": "0xc",
      "blockHash": "0x78212b52fb23d8c894412655c361268e093c3a75441a7c46269728a9643207d9",
      "blockNumber": "0xe14919",
      "gasUsed": "0x8961",
      "effectiveGasPrice": "0x513",
      "from": "0xa6c8247b39753a1436e512c358b0f27f15dfa452",
      "to": "0x1ee370274e3d6ba4909efe4b2f04e6f138899cdd",
      "contractAddress": null,
      "l1BaseFeeScalar": "0x44d",
      "l1BlobBaseFee": "0x32cc680154",
      "l1BlobBaseFeeScalar": "0xa118b",
      "l1Fee": "0xd19379f66ee",
      "l1GasPrice": "0xb9629931",
      "l1GasUsed": "0x640"
    }
  ],
  "libraries": [],
  "pending": [],
  "returns": {},
  "timestamp": 1725296919,
  "chain": 84532,
  "commit": "7df9a08"
}