{
  "transactions": [
    {
      "hash": "0xbfe8c452d6ebc62c378cecf421678c10d259e897fa4ebccc44c0bfff3be2c0ba",
      "transactionType": "CALL",
      "contractName": null,
      "contractAddress": "0x1ee370274e3d6ba4909efe4b2f04e6f138899cdd",
      "function": "setRouter(address)",
      "arguments": [
        "0x922475d4FFb7DE53eB8965500AD8F530D31e5718"
      ],
      "transaction": {
        "from": "0xa6c8247b39753a1436e512c358b0f27f15dfa452",
        "to": "0x1ee370274e3d6ba4909efe4b2f04e6f138899cdd",
        "gas": "0xbdf1",
        "value": "0x0",
        "input": "0xc0d78655000000000000000000000000922475d4ffb7de53eb8965500ad8f530d31e5718",
        "nonce": "0x41e",
        "chainId": "0x14a34"
      },
      "additionalContracts": [],
      "isFixedGasLimit": false
    }
  ],
  "receipts": [
    {
      "status": "0x1",
      "cumulativeGasUsed": "0x199933",
      "logs": [
        {
          "address": "0x1ee370274e3d6ba4909efe4b2f04e6f138899cdd",
          "topics": [
            "0x7aed1d3e8155a07ccf395e44ea3109a0e2d6c9b29bbbe9f142d9790596f4dc80",
            "0x000000000000000000000000922475d4ffb7de53eb8965500ad8f530d31e5718"
          ],
          "data": "0x",
          "blockHash": "0x3e35cfb97f45acbdb6330521c95859ecdfb0d18f72b9b382a273a0c94b01ad39",
          "blockNumber": "0xe13fbc",
          "transactionHash": "0xbfe8c452d6ebc62c378cecf421678c10d259e897fa4ebccc44c0bfff3be2c0ba",
          "transactionIndex": "0x9",
          "logIndex": "0x23",
          "removed": false
        }
      ],
      "logsBloom": "0x00000000000000000000000000000000000000000000000000000000000000800000000000000000000000000000000000000000000000000000000000000000000004000000000200000000000000000000000000000000000000000000000000000000000000000000000000000000000000000000000000000000000000000000000000000000000000000000000000000000400000000000000001000040000000000000000000000000000000000000000000000008000000000000000400000000000000000000000000000000000000000000000000000000000000000000000000000000000000000000000000000040000000000000000000000000",
      "type": "0x2",
      "transactionHash": "0xbfe8c452d6ebc62c378cecf421678c10d259e897fa4ebccc44c0bfff3be2c0ba",
      "transactionIndex": "0x9",
      "blockHash": "0x3e35cfb97f45acbdb6330521c95859ecdfb0d18f72b9b382a273a0c94b01ad39",
      "blockNumber": "0xe13fbc",
      "gasUsed": "0x8984",
      "effectiveGasPrice": "0x7a4ac",
      "from": "0xa6c8247b39753a1436e512c358b0f27f15dfa452",
      "to": "0x1ee370274e3d6ba4909efe4b2f04e6f138899cdd",
      "contractAddress": null,
      "l1BaseFeeScalar": "0x44d",
      "l1BlobBaseFee": "0x3925f50e6e",
      "l1BlobBaseFeeScalar": "0xa118b",
      "l1Fee": "0xebda4f0b49b",
      "l1GasPrice": "0x189d126d0",
      "l1GasUsed": "0x640"
    }
  ],
  "libraries": [],
  "pending": [],
  "returns": {},
  "timestamp": 1725292125,
  "chain": 84532,
  "commit": "38468b5"
}